:1000000000400020190200006102000063020000AD
:1000100000000000000000000000000000000000E0
:100020000000000000000000000000006502000069
:1000300000000000000000006702000069020000EC
:100040006B0200006B0200006B0200006B020000FC
:100050006B020000000000006B0200006B02000059
:100060006B0200006B0200006B0200006B020000DC
:100070006B0200006B0200006B0200006B020000CC
:100080006B0200006B0200006B0200006B020000BC
:100090006B0200006B0200006B0200006B020000AC
:1000A0006B0200006B020000000000000000000076
:1000B0000000000000000000000000000000000040
:1000C000164B002B00D1144B9D46402292029A1AE7
:1000D000924600218B460F461348144A121A00F02C
:1000E000E3F90F4B002B00D098470E4B002B00D0AC
:1000F00098470020002104000D000D48002802D080
:100100000C4800E000BF00F0A9F92000290000F031
:1001100037F900F08DF9C0460000080000400020CB
:100120000000000000000000640000209400002097
:100130000000000000000000054B1A68002A01D1F1
:10014000044A1A601A6810181860101C7047C046DC
:10015000640000209400002001204042704780236A
:100160009B0100204B6070470120704700207047C2
:100170000020704770B50E1C151C0C1CA31BAB4255
:1001800004DA207800F040F80134F7E7E843C017BC
:10019000284070BD011C08B5014800F029FAFEE7AF
:1001A0009C1200000B4A0C49A023DB055A50EB219E
:1001B000C9005A50094980205A50094A80218903B0
:1001C0009950A1210004C90058508021C9039950B9
:1001D0007047C04601030000540700005C070000A0
:1001E0000C05000070477047044B054AD050054B82
:1001F0001A78012A01D102221A7070471C050000EA
:10020000002000406800002008B5011C014800F0F3
:1002100095F808BD6C00002003210A4802680A43D3
:100220000260094802680A4302600849084A094B0B
:100230009B1A03DD043BC858D050FBDC06488047BE
:1002400006480047240500405405004058130000AC
:1002500000000020640000206D020000C1000000CA
:10026000FEE7FEE7FEE7FEE7FEE7FEE71C4B10B504
:100270001A78181C012A12D11A4B1B6819070ED1C3
:10028000194BF0221B68E024191C1140234204D1B1
:10029000164B1B68134202D118E03029F8D00378BE
:1002A000012B1BD10F4A1268110717D10E4A116892
:1002B000F0221140402911D10C49096811420DD199
:1002C000C1228021D200C9058B5007E00849094AA4
:1002D00011608021084A09021160E0E710BDC046A4
:1002E000E00F00F0E40F00F0E80F00F0EC0F00F07A
:1002F000DFFF07C004050040186C0040036C3F227C
:1003000001331340426C934202D0026C8154036467
:10031000704708B54369196C5A6C914202D10023A9
:1003200003760AE0012202765A6C3F21985C5A6CEF
:1003300001320A405A64FFF757FF08BD38B50E4B2B
:10034000041C1B78002B15D04069036C0B4D013346
:10035000426C2B4004D54025013B6D422B430133B9
:100360009342F2D0FFF7CAFF237E002B02D1201C5C
:10037000FFF7CFFF012038BD680000203F0000805C
:1003800008B5FFF730FFFFF70DFFFFF72BFFFCE786
:10039000002934D00123002210B488422CD3012438
:1003A0002407A14204D2814202D209011B01F8E7CD
:1003B000E400A14204D2814202D249005B00F8E786
:1003C000884201D3401A1A434C08A04202D3001BB2
:1003D0005C0822438C08A04202D3001B9C082243E5
:1003E000CC08A04202D3001BDC082243002803D023
:1003F0001B0901D00909E3E7101C10BC7047002855
:1004000001D00020C04307B4024802A14018029066
:1004100003BDC046190000000029F0D003B5FFF766
:10042000B9FF0EBC4243891A1847C0467047C04600
:10043000084B10B5041C002B02D0002100E000BFC7
:10044000054B1868836A002B00D09847201CFFF7E3
:10045000A1FEC04600000000B812000070B50E4BAF
:100460000E4D0024ED1AAD101E1CAC4204D0A300AA
:10047000F35898470134F8E700F004FF084B094DA2
:100480000024ED1AAD101E1CAC4204D0A300F3589A
:1004900098470134F8E770BD640000206400002034
:1004A0006400002064000020031C8218934202D0E4
:1004B00019700133FAE7704730B5002940D004398C
:1004C0000B68002B00DAC9181E4A1368141C002B95
:1004D00002D14B60116033E099420FD208680A18CC
:1004E0009A4205D113685268C01808604A6000E05B
:1004F0004B60216024E08A4203D8131C5A68002A0A
:10050000F9D11D685C198C420BD10968691858181B
:100510001960904214D114685268091919605A6020
:100520000EE08C4202D90C23036009E008680C1825
:10053000944203D114685268001908604A605960F7
:1005400030BDC0468C00002070B50323CD1C9D43F8
:100550000835061C0C2D01D20C2501E0002D3FDBD7
:100560008D423DD3204B1C681A1C211C002913D03E
:100570000868431B0DD40B2B02D90B60CC181EE06E
:100580008C4202D1636813601AE0486860600C1CFA
:1005900016E00C1C4968E9E7144C2068002803D1D8
:1005A000301C00F03FF82060301C291C00F03AF8A5
:1005B000431C15D0C41C03239C4384420AD12560EC
:1005C000201C0B300722231D9043C31A0BD05A4224
:1005D000E25008E0211A301C00F024F80130EED17E
:1005E0000C233360002070BD8C00002088000020A8
:1005F0000FB40B4B13B51C68002C05D0A369002B5E
:1006000002D1201C00F0C8FC05ABA168201C049A94
:10061000019300F047F816BC08BC04B01847C04668
:100620006000002038B5074C0023051C081C23601F
:10063000FFF782FD431C03D12368002B00D02B6001
:1006400038BDC046900000200023C25C0133002A60
:10065000FBD1581E7047936810B5013B9360002B87
:1006600005DA9469A34208DBCBB20A2B05D01368E4
:10067000581C10601970C8B201E000F0A5FA10BD56
:10068000F8B5061C0F1C141CD518AC4208D02178F4
:10069000301C3A1CFFF7DFFF0134431CF5D100E0AA
:1006A0000020F8BDF0B59FB0061C0F1C0392059307
:1006B000002804D08169002901D100F06DFC754B40
:1006C0009F4201D1776808E0734B9F4201D1B76820
:1006D00003E0724B9F4200D1F768BB891A070AD525
:1006E0003B69002B07D006AD00236B6120236B769E
:1006F0003023AB763BE0301C391C00F0D1FA0028E7
:10070000F1D001204042C2E0059A111D1268059106
:10071000002A76DB0992013423782E2B00D181E068
:1007200021785F48032200F0F7FC002807D05C49DD
:100730002A68431A402098401043286001342178E9
:10074000631C584806220393297600F0E5FC002834
:1007500000D18AE0544B002B7ED1059B0722073342
:100760009343083305936A69049953186B61039C9A
:100770002378002B04D10399611A029110D003E071
:10078000252BF8D00134F3E7301C391C039A029B67
:10079000FFF776FF013075D06A69029953186B61D3
:1007A0002378002B6ED0012252426A606A460023F1
:1007B0005B3201342B60EB60AB601370AB6521786A
:1007C0003A48052200F0A8FC002808D0374A013436
:1007D000831A012098402B6818432860EFE72B68A4
:1007E000D90603D56A4620215B3211701A0703D55A
:1007F0006A462B215B32117022782A2A84D0099B09
:1008000005E05242EA60022213432B6083E722781C
:10081000303A092A04D80A214B4301349B18F6E7E1
:10082000099379E763782A2B09D1059B02341A1DB5
:100830001B680592002B0DDA01235B420AE00134AC
:1008400000232278303A092A04D80A214B43013484
:100850009B18F6E7079363E705AB0093301C291C50
:100860003A1C134B00E000BF07E005AB0093301CBF
:10087000291C3A1C0E4B00F091F8049004990131A8
:1008800000D070E7BB895A0600D53AE70B981FB035
:10089000F0BDC046F012000010130000301300003D
:1008A000C2120000C612000000000000BC120000CE
:1008B00081060000F7B5151C01930A698B68061CB8
:1008C0000C1C934200DA131C221C2B60433212785A
:1008D000002A01D001332B602068800602D52B68E6
:1008E00002332B60216806270F401FD0231C43339F
:1008F0001B785A1E9341226892061FD5E118403199
:100900003020C870211C5A1C45310978A218403289
:100910000233D17012E0221C301C019919320123DC
:10092000089FB847013011D0009F01370097E06859
:100930002968009F431A9F42EDDBD7E7221C301C39
:1009400001994332089FB847013002D1012040424B
:1009500023E0206806212B68E26801400025042975
:1009600003D1D51AEB43DB171D40A26823699A42D5
:1009700001DDD31AED1800270097009FAF420BDA74
:10098000221C301C01991A320123089FB8470130FC
:10099000DCD0009F0137EFE70020FEBDF0B50D1C55
:1009A0008BB0433506920590079304950B7E0C1C83
:1009B000109A6E2B00D1A7E011D8632B22D009D852
:1009C000002B00D1B0E0582B00D0C0E045310B70B7
:1009D0007B4D4EE0642B1CD0692B1AD0B7E0732BF3
:1009E00000D1A5E009D86F2B29D0702B00D0AEE044
:1009F0000E68202333430B6036E0752B1FD0782B15
:100A000032D0A4E013680D1C191D423511601B681B
:100A10009FE0216813680E0603D5191D11601E683A
:100A200005E04806F9D5191D116000215E5E644B92
:100A3000002E3BDA049D2D2276422A7036E0216892
:100A400013680E0603D5191D11601E6804E04806E0
:100A5000F9D5191D1E881160594B227E0393082772
:100A60006F2A1ED00A271CE0231C78214533554DE0
:100A7000197011682368081D039510601E0601D5C2
:100A80000E6802E05806FBD50E88D90702D5202251
:100A9000134323601027002E03D1226820239A439A
:100AA0002260231C002243331A7001E003930A27BB
:100AB0006368A360002B03DB25680422954325604F
:100AC000002E02D1049D002B0ED0049D301C391C39
:100AD000FFF7A2FC0398013D435C301C2B70391CCE
:100AE000FFF756FC061EF1D1082F09D12168C9076E
:100AF00006D5626823699A4202DC013D30232B70DF
:100B0000049E731B23612AE008681368496905067F
:100B100004D5181D10601B68196005E04606F8D55D
:100B2000181D10601B68198000232361049D16E0C6
:100B30001368191D11601D68281CFFF785FD636887
:100B40002061984200D923612069606004E0251C7F
:100B500042352B7001232361049E00233370079ECE
:100B600005980096211C09AA069BFFF7A3FE0130F9
:100B700002D10120404221E02A1C059806992369F0
:100B8000079DA8470130F4D02668B60705D4099B15
:100B9000E068984212DA181C10E00025E068099914
:100BA000431A9D42F3DA221C059806991932012353
:100BB000079EB0470130DCD00135EFE70BB0F0BD48
:100BC000CD120000DE12000070B5051C0E1C141CB6
:100BD000002804D08269002A01D100F0DDF9234BFE
:100BE0009C4201D16C6808E0214B9C4201D1AC6869
:100BF00003E0204B9C4200D1EC68A369A360A38969
:100C00001A070AD52369002B07D022682369F6B298
:100C1000D01A626990420FDB08E0281C211C00F00A
:100C20003FF80028F1D0012040421DE0281C211C83
:100C300000F032F90028F6D1A3680130013BA3602F
:100C400023685A1C22601E706369984205D0A389EC
:100C5000301CDA0708D50A2E06D1281C211C00F00A
:100C60001BF90028DFD1301C70BDC046F012000017
:100C7000101300003013000038B5084C051C00208C
:100C80002060081C111C1A1CFFF774FA431C03D1C6
:100C90002368002B00D02B6038BDC0469000002098
:100CA000344B70B51D68061C0C1C002D05D0A969BD
:100CB000002902D1281C00F06FF92F4B9C4201D172
:100CC0006C6808E02D4B9C4201D1AC6803E02C4BD2
:100CD0009C4200D1EC68A28993B2190721D4D906AD
:100CE00005D40923336040231A43A2813FE05A0709
:100CF00013D5616B002908D0231C4433994202D0DC
:100D0000301CFFF7D9FB00236363A389242293439C
:100D1000A3810023636023692360A389082213430E
:100D2000A381216900290BD1A389A02292001A4036
:100D300080239B009A4203D0301C211C00F09CF9B8
:100D4000A38901221A4005D061690022A2604A42AB
:100D5000A26103E0990700D46269A26022690020C1
:100D6000824206D1190604D540221343A3810120F3
:100D7000404270BD60000020F0120000101300001F
:100D800030130000F7B58B89051C0C1C19075ED4C5
:100D90006268002A02DC276C002F1ADDE76A002F48
:100DA00017D000222E682A60802252011A4001D0FA
:100DB000626D15E0281C216A0123B847021C411C02
:100DC0000ED12B68002B0BD01D2B01D0162B02D17E
:100DD0002E6000205EE0A38940210B43A38159E0EF
:100DE000A3895F0706D56168636B521A002B01D097
:100DF000276CD21B281C216A0023E76AB847A28906
:100E0000411C06D12B68002B03D01D2B01D0162BC3
:100E100019D10023636023692360D70405D5411CE1
:100E200002D12A68002A00D16065616B2E6000291A
:100E3000CFD0231C4433994202D0281CFFF73CFB3F
:100E40000020606326E040231A43A28122E0266945
:100E5000002EBED027680022BF1B0197266099078D
:100E600000D16269A260019F002FB2DD281C216AB7
:100E7000321C019BA76AB847002806DCA3894022E0
:100E800013430120A381404204E0019F36183F1A1A
:100E90000197E8E7FEBD00000A6938B5051C0C1C87
:100EA000002A01D100201CE0002804D08369002B17
:100EB00001D100F071F80B4B9C4201D16C6808E045
:100EC000094B9C4201D1AC6803E0084B9C4200D125
:100ED000EC680C22A35E002BE4D0281C211CFFF739
:100EE00051FF38BDF0120000101300003013000055
:100EF000F8B5041C071C4834002C12D0A56866689D
:100F0000013E0CD4AB89012B07D90E22AB5E013315
:100F100003D0381C291CFFF7BFFF6835F0E72468B1
:100F2000EAE7F8BD002310B5041C0360436083604A
:100F300081814366C281036143618361191C082278
:100F40005C30FFF7B1FA054B24626362044BA36285
:100F5000044BE362044B236310BDC0463111000013
:100F60005911000091110000BD11000070B54B1E19
:100F700068255D430E1C291C7431FFF7E5FA041E39
:100F800008D00021016046602A1C0C30A060683245
:100F9000FFF78AFA201C70BD836913B5041C002B6F
:100FA00027D18364C3640365124B134A1B688262B2
:100FB000984201D101238361201C00F01FF860607A
:100FC000201C00F01BF8A060201C00F017F8042182
:100FD000E06000226068FFF7A5FFA06809210122F8
:100FE000FFF7A0FFE06812210222FFF79BFF012319
:100FF000A36113BDB8120000F10E0000F8B51D4B3F
:10100000071C1E68B269002A02D1301CFFF7C4FF1A
:101010004836B4687368013B05D40C22A55E002DE8
:1010200010D06834F7E73368002B06D1381C042150
:10103000FFF79CFF3060002801D03668E9E70C23F9
:101040003B6016E001235B42E381201C0123A38166
:1010500065662560A560656025616561A5615C3098
:10106000291C0822FFF720FA6563A563A564E564DF
:10107000201CF8BDB8120000F0B58B8991B0051C9A
:101080000C1C9A0725D40E23C95E002906DAA7890D
:1010900080231F400FD0002740260EE001AA00F059
:1010A000A5F80028F3DB029BF0273F02184A1F40F7
:1010B000BF187B425F418026F600281C311CFFF7D9
:1010C00043FA00280CD1A3899A051FD402221343A6
:1010D000A381231C4733236023610123636115E04F
:1010E0000C4B8022AB62A38920601343A381206153
:1010F0006661002F0AD00E23E15E281C00F088F8FC
:10110000002803D0A38901221343A38111B0F0BDAD
:1011100000E0FFFFF10E0000C9B28218904204D037
:1011200003788B4202D00130F8E7002070470000BE
:1011300038B50C1C0E25495F00F090F8002803DB41
:10114000626D1318636503E0A289024B1340A3810B
:1011500038BDC046FFEFFFFFF8B51E1C8B89051C8C
:101160000C1C171CDA0505D50E23C95E00220223CC
:1011700000F060F8A289054B281C1340A3810E22C1
:10118000A15E331C3A1CFFF777FDF8BDFFEFFFFFB0
:1011900038B50C1C0E25495F00F04CF8A389421CA1
:1011A00003D1054A1340A38104E080225201134376
:1011B000A381606538BDC046FFEFFFFF08B50E2371
:1011C000C95E00F001F808BD38B5074C0023051CC6
:1011D000081C2360FEF7C0FF431C03D12368002BCB
:1011E00000D02B6038BDC0469000002038B5074CB9
:1011F0000023051C081C111C2360FEF7B0FF431CD4
:1012000003D12368002B00D02B6038BD9000002054
:1012100038B5074C0023051C081C2360FEF7A4FF0B
:10122000431C03D12368002B00D02B6038BDC0467F
:101230009000002038B5084C051C00202060081CD8
:10124000111C1A1CFEF792FF431C03D12368002BCC
:1012500000D02B6038BDC0469000002038B5084C47
:10126000051C00202060081C111C1A1CFEF780FFC2
:10127000431C03D12368002B00D02B6038BDC0462F
:1012800090000020F8B5C046F8BC08BC9E467047E8
:10129000F8B5C046F8BC08BC9E46704745786974EE
:1012A000696E672077697468207374617475732040
:1012B00025642E0A0043000000000020232D302B5F
:1012C0002000686C4C006566674546470030313247
:1012D000333435363738394142434445460030319E
:1012E00032333435363738396162636465660000FD
:1012F00000000000000000000000000000000000EE
:1013000000000000000000000000000000000000DD
:1013100000000000000000000000000000000000CD
:1013200000000000000000000000000000000000BD
:1013300000000000000000000000000000000000AD
:10134000000000000000000000000000000000009D
:0813500070EDFF7F01000000B9
:1013580000000000F012000010130000301300001D
:101368000000000000000000000000000000000075
:10137800B51200000000000000000000000000009E
:101388000000000000000000000000000000000055
:101398000000000000000000000000000000000045
:1013A8000000000000000000000000000000000035
:0413B8000000002011
:0400000300000219DE
:00000001FF
